{
  "contractName": "SupplyChain",
  "abi": [
    {
      "inputs": [],
      "stateMutability": "nonpayable",
      "type": "constructor"
    },
    {
      "anonymous": false,
      "inputs": [
        {
          "indexed": false,
          "internalType": "address",
          "name": "from",
          "type": "address"
        },
        {
          "indexed": false,
          "internalType": "uint256",
          "name": "amount",
          "type": "uint256"
        }
      ],
      "name": "PaymentReceived",
      "type": "event"
    },
    {
      "inputs": [],
      "name": "manufacturer",
      "outputs": [
        {
          "internalType": "address",
          "name": "",
          "type": "address"
        }
      ],
      "stateMutability": "view",
      "type": "function"
    },
    {
      "inputs": [
        {
          "internalType": "address",
          "name": "",
          "type": "address"
        }
      ],
      "name": "payments",
      "outputs": [
        {
          "internalType": "uint256",
          "name": "",
          "type": "uint256"
        }
      ],
      "stateMutability": "view",
      "type": "function"
    },
    {
      "inputs": [],
      "name": "makePayment",
      "outputs": [],
      "stateMutability": "payable",
      "type": "function"
    },
    {
      "inputs": [],
      "name": "checkBalance",
      "outputs": [
        {
          "internalType": "uint256",
          "name": "",
          "type": "uint256"
        }
      ],
      "stateMutability": "view",
      "type": "function"
    },
    {
      "inputs": [],
      "name": "withdrawPayments",
      "outputs": [],
      "stateMutability": "nonpayable",
      "type": "function"
    }
  ],
  "bytecode": "0x608060405234801561000f575f80fd5b50335f806101000a81548173ffffffffffffffffffffffffffffffffffffffff021916908373ffffffffffffffffffffffffffffffffffffffff1602179055506105e08061005c5f395ff3fe608060405260043610610049575f3560e01c80636103d70b1461004d5780637475428214610063578063c71daccb1461008d578063d8d79700146100b7578063e2982c21146100c1575b5f80fd5b348015610058575f80fd5b506100616100fd565b005b34801561006e575f80fd5b506100776101ef565b604051610084919061037a565b60405180910390f35b348015610098575f80fd5b506100a1610212565b6040516100ae91906103ab565b60405180910390f35b6100bf610256565b005b3480156100cc575f80fd5b506100e760048036038101906100e291906103f2565b610326565b6040516100f491906103ab565b60405180910390f35b5f8054906101000a900473ffffffffffffffffffffffffffffffffffffffff1673ffffffffffffffffffffffffffffffffffffffff163373ffffffffffffffffffffffffffffffffffffffff161461018a576040517f08c379a00000000000000000000000000000000000000000000000000000000081526004016101819061049d565b60405180910390fd5b5f8054906101000a900473ffffffffffffffffffffffffffffffffffffffff1673ffffffffffffffffffffffffffffffffffffffff166108fc4790811502906040515f60405180830381858888f193505050501580156101ec573d5f803e3d5ffd5b50565b5f8054906101000a900473ffffffffffffffffffffffffffffffffffffffff1681565b5f60015f3373ffffffffffffffffffffffffffffffffffffffff1673ffffffffffffffffffffffffffffffffffffffff1681526020019081526020015f2054905090565b5f3411610298576040517f08c379a000000000000000000000000000000000000000000000000000000000815260040161028f90610505565b60405180910390fd5b3460015f3373ffffffffffffffffffffffffffffffffffffffff1673ffffffffffffffffffffffffffffffffffffffff1681526020019081526020015f205f8282546102e49190610550565b925050819055507f6ef95f06320e7a25a04a175ca677b7052bdd97131872c2192525a629f51be770333460405161031c929190610583565b60405180910390a1565b6001602052805f5260405f205f915090505481565b5f73ffffffffffffffffffffffffffffffffffffffff82169050919050565b5f6103648261033b565b9050919050565b6103748161035a565b82525050565b5f60208201905061038d5f83018461036b565b92915050565b5f819050919050565b6103a581610393565b82525050565b5f6020820190506103be5f83018461039c565b92915050565b5f80fd5b6103d18161035a565b81146103db575f80fd5b50565b5f813590506103ec816103c8565b92915050565b5f60208284031215610407576104066103c4565b5b5f610414848285016103de565b91505092915050565b5f82825260208201905092915050565b7f4f6e6c79206d616e7566616374757265722063616e20776974686472617720665f8201527f756e647300000000000000000000000000000000000000000000000000000000602082015250565b5f61048760248361041d565b91506104928261042d565b604082019050919050565b5f6020820190508181035f8301526104b48161047b565b9050919050565b7f5061796d656e74206d7573742062652067726561746572207468616e203000005f82015250565b5f6104ef601e8361041d565b91506104fa826104bb565b602082019050919050565b5f6020820190508181035f83015261051c816104e3565b9050919050565b7f4e487b71000000000000000000000000000000000000000000000000000000005f52601160045260245ffd5b5f61055a82610393565b915061056583610393565b925082820190508082111561057d5761057c610523565b5b92915050565b5f6040820190506105965f83018561036b565b6105a3602083018461039c565b939250505056fea26469706673582212203aa97729b30171e05b91866a70b4fb2a1bf7ba076d01e5b65a5e557ab15ef56d64736f6c63430008150033",
  "immutableReferences": {},
  "source": "// SPDX-License-Identifier: MIT\r\npragma solidity ^0.8.0;\r\n\r\ncontract SupplyChain {\r\n    address public manufacturer;\r\n    mapping(address => uint256) public payments;\r\n\r\n    event PaymentReceived(address from, uint256 amount);\r\n\r\n    constructor() {\r\n        manufacturer = msg.sender;\r\n    }\r\n\r\n    function makePayment() public payable {\r\n        require(msg.value > 0, \"Payment must be greater than 0\");\r\n        payments[msg.sender] += msg.value;\r\n        emit PaymentReceived(msg.sender, msg.value);\r\n    }\r\n\r\n    function checkBalance() public view returns (uint256) {\r\n        return payments[msg.sender];\r\n    }\r\n\r\n    function withdrawPayments() public {\r\n        require(msg.sender == manufacturer, \"Only manufacturer can withdraw funds\");\r\n        payable(manufacturer).transfer(address(this).balance);\r\n    }\r\n}\r\n",
  "sourcePath": "D:\\main project\\Pharmaceutical-Supply-chain-management-using-Ethereum-Blockchain-main\\contracts\\Supplychain.sol",
  "compiler": {
    "name": "solc",
    "version": "0.8.21+commit.d9974bed.Emscripten.clang"
  },
  "schemaVersion": "3.4.16",
  "updatedAt": "2025-02-15T09:25:43.118Z",
  "devdoc": {
    "kind": "dev",
    "methods": {},
    "version": 1
  },
  "userdoc": {
    "kind": "user",
    "methods": {},
    "version": 1
  }
}