{
  "contractName": "SupplyChain",
  "abi": [
    {
      "anonymous": false,
      "inputs": [
        {
          "indexed": false,
          "internalType": "uint256",
          "name": "id",
          "type": "uint256"
        },
        {
          "indexed": false,
          "internalType": "string",
          "name": "name",
          "type": "string"
        },
        {
          "indexed": false,
          "internalType": "uint256",
          "name": "price",
          "type": "uint256"
        },
        {
          "indexed": false,
          "internalType": "address",
          "name": "manufacturer",
          "type": "address"
        }
      ],
      "name": "ProductCreated",
      "type": "event"
    },
    {
      "anonymous": false,
      "inputs": [
        {
          "indexed": false,
          "internalType": "uint256",
          "name": "id",
          "type": "uint256"
        },
        {
          "indexed": false,
          "internalType": "address",
          "name": "distributor",
          "type": "address"
        }
      ],
      "name": "ProductPurchased",
      "type": "event"
    },
    {
      "inputs": [],
      "name": "productCount",
      "outputs": [
        {
          "internalType": "uint256",
          "name": "",
          "type": "uint256"
        }
      ],
      "stateMutability": "view",
      "type": "function",
      "constant": true
    },
    {
      "inputs": [
        {
          "internalType": "uint256",
          "name": "",
          "type": "uint256"
        }
      ],
      "name": "products",
      "outputs": [
        {
          "internalType": "uint256",
          "name": "id",
          "type": "uint256"
        },
        {
          "internalType": "string",
          "name": "name",
          "type": "string"
        },
        {
          "internalType": "uint256",
          "name": "price",
          "type": "uint256"
        },
        {
          "internalType": "address",
          "name": "manufacturer",
          "type": "address"
        },
        {
          "internalType": "address",
          "name": "distributor",
          "type": "address"
        },
        {
          "internalType": "bool",
          "name": "purchased",
          "type": "bool"
        }
      ],
      "stateMutability": "view",
      "type": "function",
      "constant": true
    },
    {
      "inputs": [
        {
          "internalType": "string",
          "name": "_name",
          "type": "string"
        },
        {
          "internalType": "uint256",
          "name": "_price",
          "type": "uint256"
        }
      ],
      "name": "createProduct",
      "outputs": [],
      "stateMutability": "nonpayable",
      "type": "function"
    },
    {
      "inputs": [
        {
          "internalType": "uint256",
          "name": "_id",
          "type": "uint256"
        }
      ],
      "name": "purchaseProduct",
      "outputs": [],
      "stateMutability": "payable",
      "type": "function",
      "payable": true
    }
  ],
  "bytecode": "0x6080604052600060015534801561001557600080fd5b50611067806100256000396000f3fe60806040526004361061003f5760003560e01c806338e76a03146100445780637acc0b2014610060578063e0f6ef87146100a2578063e9300c6c146100cd575b600080fd5b61005e600480360381019061005991906106e9565b6100f6565b005b34801561006c57600080fd5b50610087600480360381019061008291906106e9565b61039c565b60405161009996959493929190610811565b60405180910390f35b3480156100ae57600080fd5b506100b76104ad565b6040516100c49190610879565b60405180910390f35b3480156100d957600080fd5b506100f460048036038101906100ef91906109c9565b6104b3565b005b60008060008381526020019081526020016000209050600081600001541180156101265750600154816000015411155b610165576040517f08c379a000000000000000000000000000000000000000000000000000000000815260040161015c90610a71565b60405180910390fd5b8060040160149054906101000a900460ff16156101b7576040517f08c379a00000000000000000000000000000000000000000000000000000000081526004016101ae90610add565b60405180910390fd5b80600201543410156101fe576040517f08c379a00000000000000000000000000000000000000000000000000000000081526004016101f590610b49565b60405180910390fd5b3373ffffffffffffffffffffffffffffffffffffffff168160030160009054906101000a900473ffffffffffffffffffffffffffffffffffffffff1673ffffffffffffffffffffffffffffffffffffffff1603610290576040517f08c379a000000000000000000000000000000000000000000000000000000000815260040161028790610bdb565b60405180910390fd5b338160040160006101000a81548173ffffffffffffffffffffffffffffffffffffffff021916908373ffffffffffffffffffffffffffffffffffffffff16021790555060018160040160146101000a81548160ff0219169083151502179055508060030160009054906101000a900473ffffffffffffffffffffffffffffffffffffffff1673ffffffffffffffffffffffffffffffffffffffff166108fc82600201549081150290604051600060405180830381858888f1935050505015801561035e573d6000803e3d6000fd5b507f9ad4ecfaf27ea0cbeebee0ed92fe15c8a84975f1e3d45ccfc526d7751dcf98ff8233604051610390929190610bfb565b60405180910390a15050565b60006020528060005260406000206000915090508060000154908060010180546103c590610c53565b80601f01602080910402602001604051908101604052809291908181526020018280546103f190610c53565b801561043e5780601f106104135761010080835404028352916020019161043e565b820191906000526020600020905b81548152906001019060200180831161042157829003601f168201915b5050505050908060020154908060030160009054906101000a900473ffffffffffffffffffffffffffffffffffffffff16908060040160009054906101000a900473ffffffffffffffffffffffffffffffffffffffff16908060040160149054906101000a900460ff16905086565b60015481565b600081116104f6576040517f08c379a00000000000000000000000000000000000000000000000000000000081526004016104ed90610cd0565b60405180910390fd5b6001600081548092919061050990610d1f565b91905055506040518060c0016040528060015481526020018381526020018281526020013373ffffffffffffffffffffffffffffffffffffffff168152602001600073ffffffffffffffffffffffffffffffffffffffff1681526020016000151581525060008060015481526020019081526020016000206000820151816000015560208201518160010190816105a09190610f13565b506040820151816002015560608201518160030160006101000a81548173ffffffffffffffffffffffffffffffffffffffff021916908373ffffffffffffffffffffffffffffffffffffffff16021790555060808201518160040160006101000a81548173ffffffffffffffffffffffffffffffffffffffff021916908373ffffffffffffffffffffffffffffffffffffffff16021790555060a08201518160040160146101000a81548160ff0219169083151502179055509050507f2e87df3c8f53fb06266ed52023929f5fab9f24130224ef6538b665d9cac825306001548383336040516106939493929190610fe5565b60405180910390a15050565b6000604051905090565b600080fd5b600080fd5b6000819050919050565b6106c6816106b3565b81146106d157600080fd5b50565b6000813590506106e3816106bd565b92915050565b6000602082840312156106ff576106fe6106a9565b5b600061070d848285016106d4565b91505092915050565b61071f816106b3565b82525050565b600081519050919050565b600082825260208201905092915050565b60005b8381101561075f578082015181840152602081019050610744565b60008484015250505050565b6000601f19601f8301169050919050565b600061078782610725565b6107918185610730565b93506107a1818560208601610741565b6107aa8161076b565b840191505092915050565b600073ffffffffffffffffffffffffffffffffffffffff82169050919050565b60006107e0826107b5565b9050919050565b6107f0816107d5565b82525050565b60008115159050919050565b61080b816107f6565b82525050565b600060c0820190506108266000830189610716565b8181036020830152610838818861077c565b90506108476040830187610716565b61085460608301866107e7565b61086160808301856107e7565b61086e60a0830184610802565b979650505050505050565b600060208201905061088e6000830184610716565b92915050565b600080fd5b600080fd5b7f4e487b7100000000000000000000000000000000000000000000000000000000600052604160045260246000fd5b6108d68261076b565b810181811067ffffffffffffffff821117156108f5576108f461089e565b5b80604052505050565b600061090861069f565b905061091482826108cd565b919050565b600067ffffffffffffffff8211156109345761093361089e565b5b61093d8261076b565b9050602081019050919050565b82818337600083830152505050565b600061096c61096784610919565b6108fe565b90508281526020810184848401111561098857610987610899565b5b61099384828561094a565b509392505050565b600082601f8301126109b0576109af610894565b5b81356109c0848260208601610959565b91505092915050565b600080604083850312156109e0576109df6106a9565b5b600083013567ffffffffffffffff8111156109fe576109fd6106ae565b5b610a0a8582860161099b565b9250506020610a1b858286016106d4565b9150509250929050565b7f496e76616c69642070726f647563742049440000000000000000000000000000600082015250565b6000610a5b601283610730565b9150610a6682610a25565b602082019050919050565b60006020820190508181036000830152610a8a81610a4e565b9050919050565b7f50726f6475637420616c72656164792070757263686173656400000000000000600082015250565b6000610ac7601983610730565b9150610ad282610a91565b602082019050919050565b60006020820190508181036000830152610af681610aba565b9050919050565b7f496e73756666696369656e742066756e64730000000000000000000000000000600082015250565b6000610b33601283610730565b9150610b3e82610afd565b602082019050919050565b60006020820190508181036000830152610b6281610b26565b9050919050565b7f4d616e7566616374757265722063616e6e6f7420627579207468656972206f7760008201527f6e2070726f647563740000000000000000000000000000000000000000000000602082015250565b6000610bc5602983610730565b9150610bd082610b69565b604082019050919050565b60006020820190508181036000830152610bf481610bb8565b9050919050565b6000604082019050610c106000830185610716565b610c1d60208301846107e7565b9392505050565b7f4e487b7100000000000000000000000000000000000000000000000000000000600052602260045260246000fd5b60006002820490506001821680610c6b57607f821691505b602082108103610c7e57610c7d610c24565b5b50919050565b7f5072696365206d7573742062652067726561746572207468616e207a65726f00600082015250565b6000610cba601f83610730565b9150610cc582610c84565b602082019050919050565b60006020820190508181036000830152610ce981610cad565b9050919050565b7f4e487b7100000000000000000000000000000000000000000000000000000000600052601160045260246000fd5b6000610d2a826106b3565b91507fffffffffffffffffffffffffffffffffffffffffffffffffffffffffffffffff8203610d5c57610d5b610cf0565b5b600182019050919050565b60008190508160005260206000209050919050565b60006020601f8301049050919050565b600082821b905092915050565b600060088302610dc97fffffffffffffffffffffffffffffffffffffffffffffffffffffffffffffffff82610d8c565b610dd38683610d8c565b95508019841693508086168417925050509392505050565b6000819050919050565b6000610e10610e0b610e06846106b3565b610deb565b6106b3565b9050919050565b6000819050919050565b610e2a83610df5565b610e3e610e3682610e17565b848454610d99565b825550505050565b600090565b610e53610e46565b610e5e818484610e21565b505050565b5b81811015610e8257610e77600082610e4b565b600181019050610e64565b5050565b601f821115610ec757610e9881610d67565b610ea184610d7c565b81016020851015610eb0578190505b610ec4610ebc85610d7c565b830182610e63565b50505b505050565b600082821c905092915050565b6000610eea60001984600802610ecc565b1980831691505092915050565b6000610f038383610ed9565b9150826002028217905092915050565b610f1c82610725565b67ffffffffffffffff811115610f3557610f3461089e565b5b610f3f8254610c53565b610f4a828285610e86565b600060209050601f831160018114610f7d5760008415610f6b578287015190505b610f758582610ef7565b865550610fdd565b601f198416610f8b86610d67565b60005b82811015610fb357848901518255600182019150602085019450602081019050610f8e565b86831015610fd05784890151610fcc601f891682610ed9565b8355505b6001600288020188555050505b505050505050565b6000608082019050610ffa6000830187610716565b818103602083015261100c818661077c565b905061101b6040830185610716565b61102860608301846107e7565b9594505050505056fea264697066735822122057210ba7381ebcb0424efd2e7eab2049db77e9b09febc15a0028a6077948f2b064736f6c63430008130033",
  "immutableReferences": {},
  "source": "// SPDX-License-Identifier: MIT\r\npragma solidity ^0.8.0;\r\n\r\ncontract SupplyChain {\r\n    struct Product {\r\n        uint id;\r\n        string name;\r\n        uint price;\r\n        address manufacturer;\r\n        address distributor;\r\n        bool purchased;\r\n    }\r\n\r\n    mapping(uint => Product) public products;\r\n    uint public productCount = 0;\r\n\r\n    event ProductCreated(uint id, string name, uint price, address manufacturer);\r\n    event ProductPurchased(uint id, address distributor);\r\n\r\n    function createProduct(string memory _name, uint _price) public {\r\n        require(_price > 0, \"Price must be greater than zero\");\r\n        productCount++;\r\n        products[productCount] = Product(productCount, _name, _price, msg.sender, address(0), false);\r\n        emit ProductCreated(productCount, _name, _price, msg.sender);\r\n    }\r\n\r\n    function purchaseProduct(uint _id) public payable {\r\n        Product storage product = products[_id];\r\n        require(product.id > 0 && product.id <= productCount, \"Invalid product ID\");\r\n        require(!product.purchased, \"Product already purchased\");\r\n        require(msg.value >= product.price, \"Insufficient funds\");\r\n        require(product.manufacturer != msg.sender, \"Manufacturer cannot buy their own product\");\r\n\r\n        product.distributor = msg.sender;\r\n        product.purchased = true;\r\n\r\n        payable(product.manufacturer).transfer(product.price);\r\n        emit ProductPurchased(_id, msg.sender);\r\n    }\r\n}\r\n",
  "sourcePath": "D:\\main project\\Pharmaceutical-Supply-chain-management-using-Ethereum-Blockchain-main\\contracts\\supplychain.sol",
  "compiler": {
    "name": "solc",
    "version": "0.8.19+commit.7dd6d404.Emscripten.clang"
  },
  "schemaVersion": "3.4.16",
  "updatedAt": "2025-03-11T07:59:37.557Z",
  "networkType": "ethereum",
  "devdoc": {
    "kind": "dev",
    "methods": {},
    "version": 1
  },
  "userdoc": {
    "kind": "user",
    "methods": {},
    "version": 1
  }
}